:100000000C94E0000C9408010C9408010C94080175
:100010000C9408010C9408010C9408010C9408013C
:100020000C9408010C9408010C94B2040C9424055F
:100030000C9408010C9408010C9408010C9408011C
:100040000C9408010C9408010C9408010C9408010C
:100050000C9408010C9408010C9408010C945407AA
:100060000C9408010C9408010C9408010C940801EC
:100070000C9408010C9408010C9408010C940801DC
:100080000C9408010C9408010C9408010C940801CC
:100090000C9408010C9408010C9408010C940801BC
:1000A0000C9408010C9408010C940801D5F08D14EF
:1000B000A1C881CFD9F1AF2000667E7E00607F7F2E
:1000C00000666666666067676606FEFE0000FFFF04
:1000D0000006E6E66600E7E7666060606000E0E074
:1000E00060060606060007070600000000007E7E88
:1000F00066007F7F60666666666667676000FEFE14
:100100000600FFFF0066E6E60666E7E7006060605F
:100110006060E0E000060606060607070000000033
:1001200000001122334455A6B7001122884455A679
:10013000C90000000000000000000018242418007E
:1001400000003C664A5A663C00000018242418004F
:1001500000080B0002020201000904000001020273
:1001600000000524001001052401010104240206F9
:100170000524060001070581031000400904010061
:10018000020A000000070502024000000705830282
:100190004000000403090412010002EF0201404183
:1001A00023368000010102030141726475696E6F9C
:1001B000204C4C430041424C313330360000DB07C9
:1001C00011241FBECFEFDAE0DEBFCDBF11E0A0E00B
:1001D000B1E0E4EFF4E102C005900D92AC3AB10752
:1001E000D9F726E0ACEAB1E001C01D92AE32B20709
:1001F000E1F710E0C0EED0E004C02197FE010E94BC
:100200006D0ACF3DD107C9F70E9403080C94780A04
:100210000C94000020912906282329F490912806A7
:10022000982381E009F480E008952F923F924F9245
:100230005F926F927F928F929F92AF92BF92CF9276
:10024000DF92EF92FF920F931F93CF93DF9300D033
:1002500000D000D0CDB7DEB75A01902E622E712C9F
:100260009C01260D371D37FDC9C0803891050CF063
:10027000C5C09B01285F3F4F2834310508F0BEC040
:10028000262F2770822E23E0759567952A95E1F732
:10029000DB011196B695BA2FAA27B795A795A80F97
:1002A000B91FAD014E525E4F5A8349839B0136956B
:1002B000322F222737952795280F391FD901AE52A3
:1002C000BE4FBE83AD837D018D015C834B83F50101
:1002D000A8E0CA2ED12C2601481851086F01CA186F
:1002E000DB08C614D7040CF089C08038910509F4E6
:1002F00085C097FD65C06F3FBFEF7B0709F47BC0EA
:1003000021E092120AC0C490082C01C0CC0C0A94BF
:10031000EAF7D8013C90C3281DC0911011C0C490C9
:10032000D12C082C02C0CC0CDD1C0A94E2F716017B
:1003300020943094D701CC90D12CC220D3200AC075
:10034000C490082C01C0CC0C0A94EAF7AD81BE81A0
:100350003C90C324CC92882099F16730710581F1DB
:10036000B1E09B120DC0C490D12C042C02C0D594D6
:10037000C7940A94E2F7A981BA813C90C3281FC0B0
:10038000911012C0C490D12C042C02C0D594C794F3
:100390000A94E2F7160120943094AB81BC81CC9092
:1003A000D12CC220D3200BC0C490D12C042C02C06D
:1003B000D594C7940A94E2F7DA013C90C324CC9216
:1003C000319629813A812F5F3F4F3A832983AB8150
:1003D000BC811196BC83AB834F5F5F4F01962D812B
:1003E0003E812F5F3F4F3E832D830F5F1F4F3FEFB7
:1003F000E31AF30A73CF8110B3CFE2CF26960FB67C
:10040000F894DEBF0FBECDBFDF91CF911F910F914A
:10041000FF90EF90DF90CF90BF90AF909F908F9024
:100420007F906F905F904F903F902F900895FC01C8
:100430008091D101811103C08FEF9FEF08959FB785
:10044000F89482E08093E9002091F20030E01216E7
:10045000130614F421E030E02115310559F02898F5
:1004600084E68093D0018091F10080838091F20036
:10047000882319F09FBFC90108958BE68093E80097
:10048000F9CF2FB7F89483E08093E9009091E800CA
:10049000892F807295FF04C09091F20080E4891B3F
:1004A0002FBF08958091C80181110DC082E0809313
:1004B000C40184E08093C5011092C7011092C60167
:1004C00081E08093C80184EC91E00895CF93DF939D
:1004D0001F92CDB7DEB76983DC01ED91FC910280FC
:1004E000F381E02D41E050E0BE016F5F7F4F099541
:1004F0000F90DF91CF91089583E08093E900809180
:10050000F200882319F08AE38093E80008950E949E
:10051000410290E00895CF93DF931F92CDB7DEB7ED
:10052000FC018485958597FD05C02FEF3FEF35874A
:1005300024870BC0CE0101960E941702019719F47F
:10054000898190E002C08FEF9FEF0F90DF91CF91F4
:1005500008950F931F93CF93DF931F92CDB7DEB70C
:100560008C01FC018485958597FF0EC0CE01019614
:100570000E941702019719F4298130E002C02FEF81
:100580003FEFF80135872487F801848595850F9022
:10059000DF91CF911F910F910895FC01848595857E
:1005A00097FD0BC09FB7F89482E08093E90080919B
:1005B000F2009FBF90E0019608959FB7F89482E003
:1005C0008093E9008091F2009FBF90E008954091F0
:1005D000BE015091BF012091BC013091BD01421775
:1005E0005307B4F49091E8009570E1F39091E8001E
:1005F00092FD19C08093F1008091BE019091BF01DE
:1006000001968F739927892B19F48EEF8093E80058
:100610008091BE019091BF0101969093BF0180939C
:10062000BE0181E0089580E00895DF92EF92FF928D
:100630000F931F93CF93DF93D82E8A017B01E40E93
:10064000F51EEB01CE15DF0571F0D7FE03C0FE01EC
:10065000849101C088810E94E70221968111F2CF26
:100660008FEF9FEF01C0C801DF91CF911F910F91D4
:10067000FF90EF90DF9008950F931F93CF93DF9338
:100680001F92CDB7DEB782E0898342E450E061E596
:1006900071E080E80E9415030E945202DC0112966C
:1006A0000D911C9113970115110569F0D801ED9179
:1006B000FC910280F381E02DBE016F5F7F4FC80186
:1006C000099597FF07C089810F90DF91CF911F9106
:1006D0000F910895F80100851185E5CF615030F044
:1006E0002091F100FC0120830196F8CF289884E640
:1006F0008093D0010895CF92DF92EF92FF920F93F3
:100700001F93CF93DF936C017A018B01C0E0D0E09F
:10071000CE15DF0589F0D8016D918D01D601ED91DF
:10072000FC910190F081E02DC6010995892B11F40F
:100730007E0102C02196ECCFC701DF91CF911F91BE
:100740000F91FF90EF90DF90CF9008953FB7F8940E
:100750008091AD019091AE01A091AF01B091B00137
:1007600026B5A89B05C02F3F19F00196A11DB11D0C
:100770003FBFBA2FA92F982F8827820F911DA11D47
:10078000B11DBC01CD0142E0660F771F881F991F84
:100790004A95D1F708958F929F92AF92BF92CF92D0
:1007A000DF92EF92FF926B017C010E94A6034B0146
:1007B0005C01C114D104E104F104F1F00E94A6032C
:1007C000DC01CB0188199909AA09BB09883E93402D
:1007D000A105B10570F321E0C21AD108E108F108C2
:1007E00088EE880E83E0981EA11CB11CC114D104B0
:1007F000E104F10419F7DDCFFF90EF90DF90CF9087
:10080000BF90AF909F908F90089565E070E080E07A
:1008100090E00C94CB038F929F92AF92BF92CF92B5
:10082000DF92EF92FF920F931F93CF93DF935C01C0
:100830006B017A0180918B01882309F45BC0809160
:10084000D101882309F456C08091C30180FF05C0FF
:100850008091E00082608093E000E70110E00AEF01
:1008600083E0882E9AE3992E2097D9F10E944102C5
:1008700081110AC0015009F43DC061E070E080E0E0
:1008800090E00E94CB03F0CF282F30E0C217D307AF
:100890000CF48C2F4FB7F8948092E9009091E80007
:1008A00095FF1DC0282F30E0C21BD30BF601982FF7
:1008B000915020F081918093F100FACFC20ED31EA7
:1008C000112319F09092E80009C08091E80085FD9D
:1008D00006C09092E80011E0209709F010E04FBFA9
:1008E000C3CF1111C3CF5D9884E68093C2011E145B
:1008F0001F0444F081E090E0F5019383828380E05F
:1009000090E001C0C701DF91CF911F910F91FF903F
:10091000EF90DF90CF90BF90AF909F908F90089511
:100920008FB18095807F669B88601C9B8460089552
:100930000895089580E090E00895803110F46830C3
:1009400018F08091B501089590E16902F001112439
:10095000E80FF11D87FDFA95E050FF4F8081089563
:100960000E94730A1F920F920FB60F9211248F9359
:100970009F938091E1009091E100937F9093E1003B
:1009800083FF0FC01092E90091E09093EB0010926A
:10099000EC0092E39093ED001092D10198E09093D7
:1009A000F00082FF20C093E09093E9009091F20064
:1009B000992319F09AE39093E8009091C20199234A
:1009C00039F09091C20191509093C201992389F11D
:1009D0009091D001992339F09091D001915090934A
:1009E000D001992341F184FF10C08091E2008E7EF6
:1009F00081608093E2008091E1008F7E8093E1002E
:100A00008091C3018E7E806111C080FF16C08091ED
:100A1000E2008E7E80618093E2008091E1008E7E14
:100A20008093E1008091C3018E7E81608093C30139
:100A300004C05D9ACDCF289AD6CF9F918F910F9009
:100A40000FBE0F901F9018951F920F920FB60F9226
:100A50001124CF92DF92EF92FF920F931F932F9367
:100A60003F934F935F936F937F938F939F93AF9336
:100A7000BF93EF93FF93CF93DF93CDB7DEB76C9720
:100A8000DEBFCDBF1092E9008091E80083FFEDC189
:100A900068E0CE0145960E946E0382EF8093E800E5
:100AA0008D8987FF05C09091E80090FFFCCF03C0BF
:100AB0009EEF9093E800982F907609F0C6C09E892B
:100AC0002F89188D91110CC0803829F48091C101B3
:100AD0008093F10002C01092F1001092F10048C121
:100AE000422F50E0512B913051F4811141C14130DE
:100AF000510509F03DC18091C1018D7F0BC093303C
:100B000061F4811135C14130510509F031C1809145
:100B1000C10182608093C1012BC1953041F4809165
:100B2000E80080FFFCCF20682093E30021C19630CD
:100B300009F05FC0EB8CFC8C1092E9001092BF01B1
:100B40001092BE01123091F51092BD011092BC01BD
:100B50000E943C0399E0BE016F5F7F4FDB01E92FEC
:100B60001D92EA95E9F799831A8391E09E8390EAB2
:100B700098879AEF99872091BE013091BF01275F36
:100B80003F4F3C832B838D831092E9001092BF016D
:100B90001092BE01F092BD01E092BC0149E050E02C
:100BA00080E00E9415030E943C03E2C0F092BD0168
:100BB000E092BC010E945202DC011296ED90FC9082
:100BC0001397E114F10409F4C0C0D701ED91FC9131
:100BD0000480F581E02DBE016B5E7F4FC701099552
:100BE000009719F00CF0C4C0C7C0F701E084F1848D
:100BF000E8CF973009F4C0C0983021F481E08093A9
:100C0000F100B6C0993009F0B3C0837009F0B4C0E8
:100C1000EDE8F1E081E021E036E39081992361F095
:100C20008093E9002093EB0091919093EC00309336
:100C3000ED008F5F873089F78EE78093EA0010928E
:100C4000EA008F898093D10193C08B8D9C8D109287
:100C5000E9001092BF011092BE019093BD018093F4
:100C6000BC01898D811156C08E899D89913A59F4B4
:100C7000813209F081C047E050E064E871E080E033
:100C80000E94150375C0913209F076C0833289F451
:100C9000888D90E0982F88272F89822BA0E0B0E0E4
:100CA0008093800190938101A0938201B09383018E
:100CB0005FC0803269F48091E80082FFFCCF67E07A
:100CC00084E891E00E946E038BEF8093E80006C0F9
:100CD000823209F04DC08F8980938B018091C001D1
:100CE000882319F0EEEFFAE002C0E0E0F8E080912E
:100CF000840190918501A0918601B0918701803B8C
:100D00009440A105B10509F07BC080918B0180FF63
:100D100093C076C00E945202DC0112960D911C9184
:100D200013970115110541F1D801ED91FC91019046
:100D3000F081E02DBE016B5E7F4FC80109958111E6
:100D400017C0F80100851185ECCF113009F44EC0B1
:100D5000133091F48F89882309F445C0823081F4DF
:100D600040E867E085EB91E00E949E07882321F030
:100D70008EEF8093E80079C081E28093EB0075C02C
:100D8000813029F440E86BE089EA91E0EDCF8330CF
:100D900099F70E945202DC011296ED90FC90139795
:100DA0008E010F5F1F4F6801E114F10479F0D70144
:100DB000ED91FC910680F781E02DB801C7010995FE
:100DC000080F111DF701E084F184EECFD8011C92C9
:100DD000F60101900020E9F73197BF016C197D09F8
:100DE00040E0C601C1CF63E971E002C067E971E08C
:100DF0006115710509F2FB01449150E080E840CF94
:100E00000FB6F894A8958091600088618093600087
:100E1000109260000FBEA895EE3F2AE0F20739F06D
:100E20008091FE0A9091FF0A91838083A1CF109256
:100E3000FF0A1092FE0A9CCFEE3F8AE0F80731F0DD
:100E4000808191819093FF0A8093FE0A87E797E75C
:100E5000918380839BE088E10FB6F894A8958093F6
:100E600060000FBE9093600083CF6C960FB6F8942D
:100E7000DEBF0FBECDBFDF91CF91FF91EF91BF914C
:100E8000AF919F918F917F916F915F914F913F9122
:100E90002F911F910F91FF90EF90DF90CF900F90C7
:100EA0000FBE0F901F9018951F920F920FB60F92C2
:100EB00011242F933F938F939F93AF93BF93809170
:100EC000B1019091B201A091B301B091B401309100
:100ED000AC0123E0230F2D3720F40196A11DB11D95
:100EE00005C026E8230F0296A11DB11D2093AC0179
:100EF0008093B1019093B201A093B301B093B40178
:100F00008091AD019091AE01A091AF01B091B0017F
:100F10000196A11DB11D8093AD019093AE01A093E8
:100F2000AF01B093B001BF91AF919F918F913F916D
:100F30002F910F900FBE0F901F901895CF92DF92B8
:100F4000EF92FF920F931F93CF93DF931F92CDB732
:100F5000DEB7182F062FE42E862F880F8E5F998319
:100F60000E94E70283E00E94E702F12EC12E9981E0
:100F7000D92E8C2D8F19801798F4F601E7FE02C048
:100F8000849101C080810E94E702182F80E00E94B6
:100F9000E7028123FFEFCF1ADF0A8111EACF01C0F8
:100FA00081E00F90DF91CF911F910F91FF90EF9013
:100FB000DF90CF900895E2EDF5E01382128288EE83
:100FC00093E0A0E0B0E084839583A683B78387E9AC
:100FD00091E0918380838FEF9FEF9587848787E0EF
:100FE00090E00E94510A80932206E3E2F6E089EA4B
:100FF00091E0918380831582168280E18783148239
:10100000138211860895789484B5826084BD84B576
:10101000816084BD85B5826085BD85B5816085BDF3
:1010200080916E00816080936E00109281008091AB
:101030008100826080938100809181008160809333
:101040008100809180008160809380008091910078
:1010500082608093910080919100816080939100E3
:10106000809190008160809390008091C1008460A5
:101070008093C1008091C10082608093C100809103
:10108000C10081608093C1008091C3008160809322
:10109000C3008091C00082608093C0008091C20034
:1010A00081608093C20080917A00846080937A008E
:1010B00080917A00826080937A0080917A008160CA
:1010C00080937A0080917A00806880937A001092F1
:1010D000D1011092C1011092C3018091D7008160AB
:1010E0008093D70080EA8093D80089B5806189BD5C
:1010F00089B5826089BD09B400FEFDCF61E070E072
:1011000080E090E00E94CB038091D8008F7C8061CA
:101110008093D8008091E000807F8093E0008091F0
:10112000E1008E7E8093E1008DE08093E200559A8D
:10113000209AEEEFFFE7859194918B3F9C4D19F437
:1011400081E08093C00181EC80937C0081EF85B9C0
:1011500087EE84B984E38BB984EF8AB9769A6E9866
:1011600080EF81BB10BA80E58CBD81E08DBD0E940F
:1011700005045F9902C05F9AFACF5C98ECEAF0E050
:101180009DE085918EBD00000DB407FEFDCF8EB5AC
:101190009A95B9F75C9A81E88093640081E0809326
:1011A000650011E0552453948FB7F8944091B10134
:1011B0005091B2016091B3017091B4018FBF8091E1
:1011C0002B06942F981B892F90912C06992329F098
:1011D00080932D0610922C064EC190912A068917F5
:1011E00040F48F5F891708F046C113BF889513BE7E
:1011F00042C150922C0640932B0680912606909176
:10120000270601969093270680932606809128064C
:10121000809329060E9490048093280680912606D8
:101220009091270667E070E00E94590A892B31F4FB
:101230008091BB018F5F83708093BB011092BA01D4
:1012400080E80E940A01882359F08091B8019091AA
:10125000B90101979093B9018093B8015092BA01F6
:1012600080E10E940A01882359F08091B801909191
:10127000B90101969093B9018093B8015092BA01D7
:1012800080E20E940A01882359F08091B601909172
:10129000B70101979093B7018093B6015092BA01BC
:1012A00080E40E940A01882359F08091B601909150
:1012B000B70101969093B7018093B6015092BA019D
:1012C000E090B801F090B90127E0E222FF24F0920B
:1012D000B901E092B801C090B601D090B7018FE09B
:1012E000C822DD24D092B701C092B60188E00E94E6
:1012F0000A018111C8C00E94900483FF04C080913C
:10130000BA018111C0C084E00E940A01882329F03B
:101310008091B50181278093B501812C912CD0E07B
:10132000A12CB12C00E022242A942D0E33243394D6
:101330003D0E6D2F802F0E949D0444244394400E47
:10134000813009F064C0622D802F0E949D04C1E0AD
:10135000813009F0C0E0632D802F0E949D04813010
:1013600009F4C46077247A94700E6D2F872D0E9443
:101370009D040C2F813009F40260622D872D0E949C
:101380009D04813009F40860E02FF0E0EF5DFE4F2E
:101390000491632D872D0E949D04E02F813009F474
:1013A000E295EF7094E0E99FA001112443515F4F53
:1013B00001E024E0B401C5010E9415016D2F842DC8
:1013C0000E949D04813009F4C260622D842D0E9428
:1013D0009D04813009F4C860EC2FF0E0EF5DFE4F12
:1013E000C491632D842D0E949D04EC2F813009F45B
:1013F000E295EF7024E0E29FA001112447545F4F73
:1014000001E024E0B401C50104960E941501042DF9
:1014100088E0A80EB11C003109F08BCFDF5F98E0A7
:10142000890E911CD83009F07BCF4091BB0128E098
:10143000429FA00111244F5C5E4FB70193E0660FFD
:10144000771F9A95E1F702E028E0C60133E0880FA4
:10145000991F3A95E1F70E941501E2EDF1E080E075
:1014600098E000800EBC1111012C019780FDFDCF8A
:101470000192B9F70DB480E090E0892B09F494CE85
:101480000E94000091CEF70184E0EE0FFF1F8A95C5
:10149000E1F7EC0DFD1DE050FF4F80818127808337
:1014A00032CFF999FECF92BD81BDF89A992780B5C8
:1014B0000895AA1BBB1B51E107C0AA1FBB1FA6179B
:1014C000B70710F0A61BB70B881F991F5A95A9F7ED
:1014D00080959095BC01CD010895EE0FFF1F0590FA
:1014E000F491E02D099481E090E0F8940C94780A4E
:0414F000F894FFCF9E
:1014F40001010101010101010101010101010101D8
:1015040001010100000000000000010100010001D0
:1015140001010100010101010100010000000001BD
:1015240001000001010000000000010001000101B0
:1015340001000100010100010000000000000001A1
:10154400010001000101000100010100000101018D
:101554000100000000000000000000010001000183
:101564000101010101010101010101010101010167
:10157400FFFFFFFF00E100000000000000C18081C8
:101584000000000000000066020B0487027C02CD0C
:0C159400028B02A9020000000098040075
:00000001FF
