:100000000C94F3000C941B010C941B010C941B0129
:100010000C941B010C941B010C941B010C941B01F0
:100020000C941B010C941B010C9463080C94490460
:100030000C941B010C941B010C941B010C941B01D0
:100040000C941B010C941B010C941B010C941B01C0
:100050000C941B010C941B010C941B010C94B30613
:100060000C941B010C941B010C941B010C941B01A0
:100070000C941B010C941B010C941B010C941B0190
:100080000C941B010C941B010C941B010C941B0180
:100090000C941B010C941B010C941B010C941B0170
:1000A0000C941B010C941B010C941B01D5F08D14B6
:1000B000A1C881CFD9F1AF20000408667E7E006020
:1000C0007F7F00666666666067676606FEFE000004
:1000D000FFFF0006E6E66600E7E766606060600036
:1000E000E0E06006060606000707060000000004C0
:1000F00008007E7E66007F7F60666666666667676C
:100100006000FEFE0600FFFF0066E6E60666E7E723
:10011000006060606060E0E0000606060606070713
:100120000000000000001122334455A6B700112240
:10013000884455A6C908080000000000000000001F
:100140000000000000000000000018183C247E247D
:100150007E183C00180000003C3C7E66FF4AFF5AB7
:10016000FF66FF3C7E003C00000018183C247E2403
:100170007E183C00180000080B0002020201000972
:100180000400000102020000052400100105240102
:10019000010104240206052406000107058103105D
:1001A000004009040100020A0000000705020240A5
:1001B0000000070583024000000403090412010047
:1001C00002EF020140412336800001010203014198
:1001D000726475696E6F204C4C430041424C313360
:1001E00030360000970B11241FBECFEFDAE0DEBFE0
:1001F000CDBF11E0A0E0B1E0E4EBF7E102C0059073
:100200000D92AC3AB107D9F726E0ACEAB1E001C0F3
:100210001D92AC32B207E1F710E0C3EFD0E004C0AA
:100220002197FE010E94CD0BC23FD107C9F70E9462
:1002300012090C94D80B0C9400004091BD0550910C
:10024000BE052091BB053091BC0542175307B4F49D
:100250009091E8009570E1F39091E80092FD19C04B
:100260008093F1008091BD059091BE0501968F733A
:100270009927892B19F48EEF8093E8008091BD05B2
:100280009091BE0501969093BE058093BD0581E0D7
:10029000089580E00895DF92EF92FF920F931F93ED
:1002A000CF93DF93D82E8A017B01E40EF51EEB017C
:1002B000CE15DF0571F0D7FE03C0FE01849101C0A9
:1002C00088810E941D0121968111F2CF8FEF9FEF4F
:1002D00001C0C801DF91CF911F910F91FF90EF9066
:1002E000DF900895615030F02091F100FC012083EF
:1002F0000196F8CF289884E68093C2050895CF929E
:10030000DF92EF92FF920F931F93CF93DF936C01D5
:100310007A018B01C0E0D0E0CE15DF0589F0D8016D
:100320006D918D01D601ED91FC910190F081E02D50
:10033000C6010995892B11F47E0102C02196ECCFEC
:10034000C701DF91CF911F910F91FF90EF90DF9048
:10035000CF9008953FB7F8948091AD019091AE0190
:10036000A091AF01B091B00126B5A89B05C02F3F69
:1003700019F00196A11DB11D3FBFBA2FA92F982FCB
:100380008827820F911DA11DB11DBC01CD0142E046
:10039000660F771F881F991F4A95D1F708954F92CE
:1003A0005F927F928F929F92AF92BF92CF92DF9295
:1003B000EF92FF920F931F93CF93DF9300D000D063
:1003C000CDB7DEB729011C2DA02EB12C9C012A0D22
:1003D0003B1D121613060CF0B3C1803891050CF0CA
:1003E000AFC1FB01EE0DF11D1E161F060CF0A8C1DA
:1003F000603471050CF0A4C14115510509F4A0C188
:10040000E62FE770FE2EFB0177FD3796A3E0F5950A
:10041000E795AA95E1F7AE2F77FF04C0FF2011F012
:10042000AFEFAE0F97FF05C0EE27FF27E81BF90BD4
:1004300002C0E0E0F0E02038310524F020E8722E20
:10044000781A01C0702E7E1A6A2F0A2E000C770BC4
:10045000AF3F1CF4D62ED09401C0D12C21E03E2D0C
:10046000377009F420E0E694E694E694E20E6E0D0F
:10047000711D693071051CF028E0E22EEA1AED18B2
:100480003D2D3A0FDC0120E83203A00DB11D1124EF
:10049000AE0FBF1FD09EE00DF11D11244E0F5F1F48
:1004A00081E090E04C010F2C02C0880C991C0A944A
:1004B000E2F7133009F403C1A0F4113009F4B5C018
:1004C000123009F03DC18FEF889DB001899D700DFC
:1004D0001124609570957C836B835C802E2D230F97
:1004E0002BC01A3F31F01B3F09F02AC12E2D230FDC
:1004F00088C02E2D230F51C0FA01E00FF11FE491A7
:10050000E89D6001E99DD00C1124DA82C98237FD93
:1005100007C0FC01E080EE2DE623CE2AFC01C0825C
:10052000F11013C00F5F1F4F0196071528F33F5FAF
:100530004A0D5B1DA058BF4F321709F401C1CD0110
:100540008B549E4F00E010E0F0CF37305CF7FC0199
:10055000E058FF4FD080D520CA80DC28D082E2CF7F
:10056000FA01E60FF71FE491E89D8001E99D100D67
:1005700011241A83098337FD04C0FC011081012B6B
:100580000083F11013C06F5F7F4F0196671540F332
:100590003F5F4A0D5B1DA058BF4F321709F4D0C012
:1005A000CD018B549E4F60E070E0F0CF37305CF7A8
:1005B0008C0100581F4FF801E080EA81EE2AF80113
:1005C000E082E1CFFA01E00FF11FE491E89DC00164
:1005D000E99D900D11249A83898337FD05C080958C
:1005E000FB01908189238083F11014C00F5F1F4F9E
:1005F0006F5F7F4F071530F33F5F4A0D5B1DA058BB
:10060000BF4F321709F49CC0BD016B547E4F00E010
:1006100010E0F0CF373054F7FB01E058FF4F8A81EC
:100620008095908189238083E1CFC2018E0F9F1F27
:100630002E2D230F321709F483C0BD016B547E4F5A
:100640006B0100E010E0071590F5FC01E00FF11FD1
:10065000E491E89DB001E99D700D112460957095BD
:100660007C836B83FA01E00FF11FE491E89D200188
:10067000E99D500C11245A82498237FD05C0F601CC
:1006800070816723462A4082FF2059F037304CF4AE
:10069000F601E058FF4F70816C8167237A81672BE8
:1006A00060830F5F1F4FFFEFCF1ADF0ACCCF3F5F92
:1006B0004A0D5B1D8A0D9B1DA058BF4FBBCFC72C99
:1006C000D12CE40FF51FAB54BE4F60E870E06C19FD
:1006D0007D09AC18BD088501000F111F572D2E2D67
:1006E000CF93DF93ED01EF96EF962296A590C590FC
:1006F000FF2059F0A89C5001C89C600137302CF4B1
:10070000E880D094ED20EB28E99233233AF0EC9086
:10071000C094EC20EA28ED920C948F0311965A9520
:1007200029F72A9551F0572D33951124E00FF11D2B
:10073000A60FB11DC60FD11DD9CFDF91CF911124C6
:100740000F900F900F900F90DF91CF911F910F910D
:10075000FF90EF90DF90CF90BF90AF909F908F90E1
:100760007F905F904F900895CF92DF92EF920F931A
:10077000CF93DF934115510569F1FA010491319648
:10078000E4904E5F5F4F2223F9F0C02FD0E0AE2DF2
:10079000A695A695A695EA2FF0E0A1E0B0E03E2D43
:1007A000377011F4A0E0B0E0AE0FBF1FCA9F600128
:1007B000CB9FD00CDA9FD00C11242C9DF0012D9DE5
:1007C000F00D11244E0F5F1F2AEFC22E20E030E003
:1007D0000E94CF01DF91CF910F91EF90DF90CF90EA
:1007E00008950895089580E090E008958038910577
:1007F00018F46034710518F08091B505089523E070
:10080000959587952A95E1F7FB0133E0F595E795F6
:100810003A95E1F744E0EE0FFF1F4A95E1F7E80F44
:10082000F91FE050FF4F808108950F931F93CF93DE
:10083000DF931F92CDB7DEB782E0898342E450E0B8
:1008400067E771E080E80E944B010E944F08DC01DD
:1008500012960D911C9113970115110569F0D8019D
:10086000ED91FC910280F381E02DBE016F5F7F4F1F
:10087000C801099597FF07C089810F90DF91CF913B
:100880001F910F910895F80100851185E5CF0E9411
:10089000D30B1F920F920FB60F921124CF92DF92BB
:1008A000EF92FF920F931F932F933F934F935F937A
:1008B0006F937F938F939F93AF93BF93EF93FF9328
:1008C000CF93DF93CDB7DEB76C97DEBFCDBF10926D
:1008D000E9008091E80083FFEDC168E0CE01459614
:1008E0000E94720182EF8093E8008D8987FF05C026
:1008F0009091E80090FFFCCF03C09EEF9093E8003A
:10090000982F907609F0C6C09E892F89188D911175
:100910000CC0803829F48091C0058093F10002C09A
:100920001092F1001092F10048C1422F50E0512B7B
:10093000913051F4811141C14130510509F03DC15F
:100940008091C0058D7F0BC0933061F4811135C15A
:100950004130510509F031C18091C005826080931A
:10096000C0052BC1953041F48091E80080FFFCCF99
:1009700020682093E30021C1963009F05FC0EB8C22
:10098000FC8C1092E9001092BE051092BD05123049
:1009900091F51092BC051092BB050E94150499E0D8
:1009A000BE016F5F7F4FDB01E92F1D92EA95E9F7EA
:1009B00099831A8391E09E8390EA98879AEF9987AA
:1009C0002091BD053091BE05275F3F4F3C832B83AF
:1009D0008D831092E9001092BE051092BD05F09231
:1009E000BC05E092BB0549E050E080E00E944B016D
:1009F0000E941504E2C0F092BC05E092BB050E9483
:100A00004F08DC011296ED90FC901397E114F1046D
:100A100009F4C0C0D701ED91FC910480F581E02D6F
:100A2000BE016B5E7F4FC7010995009719F00CF06E
:100A3000C4C0C7C0F701E084F184E8CF973009F45F
:100A4000C0C0983021F481E08093F100B6C09930A5
:100A500009F0B3C0837009F0B4C0EDE8F1E081E0C3
:100A600021E036E39081992361F08093E90020939F
:100A7000EB0091919093EC003093ED008F5F873005
:100A800089F78EE78093EA001092EA008F898093BD
:100A9000C30593C08B8D9C8D1092E9001092BE050A
:100AA0001092BD059093BC058093BB05898D811183
:100AB00056C08E899D89913A59F4813209F081C0DE
:100AC00047E050E064E871E080E00E944B0175C0AF
:100AD000913209F076C0833289F4888D90E0982FA6
:100AE00088272F89822BA0E0B0E08093800190932B
:100AF0008101A0938201B09383015FC0803269F4C9
:100B00008091E80082FFFCCF67E084E891E00E94DA
:100B100072018BEF8093E80006C0823209F04DC06D
:100B20008F8980938B018091BF05882319F0EEEFA8
:100B3000FAE002C0E0E0F8E0809184019091850144
:100B4000A0918601B0918701803B9440A105B10539
:100B500009F07BC080918B0180FF93C076C00E941A
:100B60004F08DC0112960D911C9113970115110588
:100B700041F1D801ED91FC910190F081E02DBE0191
:100B80006B5E7F4FC8010995811117C0F801008580
:100B90001185ECCF113009F44EC0133091F48F89D8
:100BA000882309F445C0823081F440E867E08BED8A
:100BB00091E00E94D508882321F08EEF8093E80011
:100BC00079C081E28093EB0075C0813029F440E860
:100BD0006BE08FEC91E0EDCF833099F70E944F08E6
:100BE000DC011296ED90FC9013978E010F5F1F4F62
:100BF0006801E114F10479F0D701ED91FC910680D0
:100C0000F781E02DB801C7010995080F111DF70103
:100C1000E084F184EECFD8011C92F601019000200F
:100C2000E9F73197BF016C197D0940E0C601C1CFDA
:100C300069EB71E002C06DEB71E06115710509F2BD
:100C4000FB01449150E080E840CF0FB6F894A8959E
:100C500080916000886180936000109260000FBEF8
:100C6000A895EE3F2AE0F20739F08091FE0A9091B4
:100C7000FF0A91838083A1CF1092FF0A1092FE0A8F
:100C80009CCFEE3F8AE0F80731F08081918190930C
:100C9000FF0A8093FE0A87E797E7918380839BE0B2
:100CA00088E10FB6F894A895809360000FBE9093EA
:100CB000600083CF6C960FB6F894DEBF0FBECDBF39
:100CC000DF91CF91FF91EF91BF91AF919F918F9164
:100CD0007F916F915F914F913F912F911F910F9154
:100CE000FF90EF90DF90CF900F900FBE0F901F906E
:100CF00018958F929F92AF92BF92CF92DF92EF9210
:100D0000FF926B017C010E94AA014B015C01C1149E
:100D1000D104E104F104F1F00E94AA01DC01CB014D
:100D200088199909AA09BB09883E9340A105B10514
:100D300070F321E0C21AD108E108F10888EE880EAC
:100D400083E0981EA11CB11CC114D104E104F1047C
:100D500019F7DDCFFF90EF90DF90CF90BF90AF906D
:100D60009F908F9008951F920F920FB60F921124AB
:100D70002F933F938F939F93AF93BF938091B10134
:100D80009091B201A091B301B091B4013091AC0146
:100D900023E0230F2D3720F40196A11DB11D05C0BE
:100DA00026E8230F0296A11DB11D2093AC0180936C
:100DB000B1019093B201A093B301B093B4018091BB
:100DC000AD019091AE01A091AF01B091B00101963B
:100DD000A11DB11D8093AD019093AE01A093AF0111
:100DE000B093B001BF91AF919F918F913F912F919F
:100DF0000F900FBE0F901F901895FC018091C305B6
:100E0000811103C08FEF9FEF08959FB7F89482E0A0
:100E10008093E9002091F20030E01216130614F4DA
:100E200021E030E02115310559F0289884E68093BF
:100E3000C2058091F10080838091F200882319F02F
:100E40009FBFC90108958BE68093E800F9CF2FB7C3
:100E5000F89483E08093E9009091E800892F8072F4
:100E600095FF04C09091F20080E4891B2FBF089584
:100E7000CF93DF931F92CDB7DEB76983DC01ED918D
:100E8000FC910280F381E02D41E050E0BE016F5FF4
:100E90007F4F09950F90DF91CF91089583E0809364
:100EA000E9008091F200882319F08AE38093E8003A
:100EB00008950E94270790E00895CF93DF931F9233
:100EC000CDB7DEB7FC018485958597FD05C02FEF72
:100ED0003FEF358724870BC0CE0101960E94FD06A7
:100EE000019719F4898190E002C08FEF9FEF0F9076
:100EF000DF91CF9108950F931F93CF93DF931F92AC
:100F0000CDB7DEB78C01FC018485958597FF0EC0B7
:100F1000CE0101960E94FD06019719F4298130E067
:100F200002C02FEF3FEFF80135872487F801848551
:100F300095850F90DF91CF911F910F910895FC013E
:100F40008485958597FD0BC09FB7F89482E08093C8
:100F5000E9008091F2009FBF90E0019608959FB74D
:100F6000F89482E08093E9008091F2009FBF90E0C6
:100F700008958F929F92AF92BF92CF92DF92EF929D
:100F8000FF920F931F93CF93DF935C016B017A0164
:100F900080918B01882309F45BC08091C30588236D
:100FA00009F456C08091C10580FF05C08091E00022
:100FB00082608093E000E70110E00AEF83E0882E72
:100FC0009AE3992E2097D9F10E94270781110AC030
:100FD000015009F43DC061E070E080E090E00E94C3
:100FE0007906F0CF282F30E0C217D3070CF48C2FEE
:100FF0004FB7F8948092E9009091E80095FF1DC0EA
:10100000282F30E0C21BD30BF601982F915020F00F
:1010100081918093F100FACFC20ED31E112319F0F3
:101020009092E80009C08091E80085FD06C090928A
:10103000E80011E0209709F010E04FBFC3CF111175
:10104000C3CF5D9884E68093CF051E141F0444F03F
:1010500081E090E0F5019383828380E090E001C01D
:10106000C701DF91CF911F910F91FF90EF90DF901B
:10107000CF90BF90AF909F908F90089565E070E003
:1010800080E090E00C9479062091CA05282329F489
:101090009091C905982381E009F480E0089580913A
:1010A000D40581110DC082E08093D00584E0809347
:1010B000D1051092D3051092D20581E08093D4051A
:1010C00080ED95E008951F920F920FB60F921124B4
:1010D0008F939F938091E1009091E100937F909393
:1010E000E10083FF0FC01092E90091E09093EB00C4
:1010F0001092EC0092E39093ED001092C30598E0FB
:101100009093F00082FF20C093E09093E9009091CB
:10111000F200992319F09AE39093E8009091CF059B
:10112000992339F09091CF0591509093CF05992351
:1011300089F19091C205992339F09091C20591509F
:101140009093C205992341F184FF10C08091E20081
:101150008E7E81608093E2008091E1008F7E80939B
:10116000E1008091C1058E7E806111C080FF16C0B4
:101170008091E2008E7E80618093E2008091E100A8
:101180008E7E8093E1008091C1058E7E8160809388
:10119000C10504C05D9ACDCF289AD6CF9F918F917B
:1011A0000F900FBE0F901F901895CF92DF92EF9285
:1011B000FF920F931F93CF93DF931F92CDB7DEB7AC
:1011C000182F062FE42E862F880F8E5F99830E949A
:1011D0001D0183E00E941D01F12EC12E9981D92E9F
:1011E0008C2D8F19801798F4F601E7FE02C08491C8
:1011F00001C080810E941D01182F80E00E941D0106
:101200008123FFEFCF1ADF0A8111EACF01C081E00D
:101210000F90DF91CF911F910F91FF90EF90DF9092
:10122000CF900895CF93DF9300D01F92CDB7DEB754
:10123000789484B5826084BD84B5816084BD85B5B1
:10124000826085BD85B5816085BD80916E008160BD
:1012500080936E0010928100809181008260809363
:101260008100809181008160809381008091800065
:1012700081608093800080919100826080939100D2
:1012800080919100816080939100809190008160B5
:10129000809390008091C10084608093C100809110
:1012A000C10082608093C1008091C1008160809301
:1012B000C1008091C30081608093C3008091C00011
:1012C00082608093C0008091C20081608093C200E0
:1012D00080917A00846080937A0080917A008260A5
:1012E00080937A0080917A00816080937A00809167
:1012F0007A00806880937A001092C3051092C0052E
:101300001092C1058091D70081608093D70080EA58
:101310008093D80089B5806189BD89B5826089BD17
:1013200009B400FEFDCF61E070E080E090E00E9433
:1013300079068091D8008F7C80618093D80080915D
:10134000E000807F8093E0008091E1008E7E8093BA
:10135000E1008DE08093E200559A209AEEEFFFE7DE
:10136000859194918B3F9C4D19F481E08093BF054A
:1013700081EC80937C0085B1806F85B984B1877ED4
:1013800084B984B1876E84B95E9A5F988AB1806DA2
:101390008AB9769A6E9881B3806F81BB899880B341
:1013A0008D7080BB80E58CBD81E08DBD0E943E08C4
:1013B0005F9A0E943E085E985C98ECEAF0E08DE04F
:1013C0008E0F94919EBD00000DB407FEFDCF3196A7
:1013D0008E13F7CF5C9A81E880936400809165005A
:1013E000816080936500552453948FB7F8944091A1
:1013F000B1015091B2016091B3017091B4018FBFFE
:101400008091CC05342F381B832F9091CD059923E3
:1014100029F03093CE051092CD0581C19091CB0576
:10142000391740F48F5F891708F079C153BE88954A
:1014300013BE75C15092CD054093CC058091C70570
:101440009091C80501969093C8058093C70567E001
:1014500070E00E94B90B892B31F48091BA058F5F3F
:1014600083708093BA058091C9058093CA058FB1B6
:101470008095807F669B88601C9B84608093C905F3
:1014800080E80E944408882349F08091B805909133
:10149000B90501979093B9058093B80580E10E9442
:1014A0004408882349F08091B8059091B9050196C8
:1014B0009093B9058093B80580E20E944408882380
:1014C00049F08091B6059091B70501979093B705C3
:1014D0008093B60580E40E944408882349F08091F7
:1014E000B6059091B70501969093B7058093B60520
:1014F0006090B8057090B90587E0682277247092F3
:10150000B9056092B8052090B6053090B7059FE008
:10151000292233243092B7052092B60588E00E9434
:101520004408882369F0F301A4E0EE0FFF1FAA9599
:10153000E1F7E20DF31DE050FF4F808185258083A8
:1015400084E00E944408882329F08091B505852510
:101550008093B5051B821A8200E010E0AA80BB8050
:10156000F8E0AF1AB108CA80DB8028E0C20ED11CB7
:101570006A817B81C8010E94F603F80138967F01D9
:10158000813009F06DC0B501C8010E94F603442402
:101590004394813009F0412C4801F8E08F1A9108FA
:1015A0006A817B81C4010E94F603813019F4242DE5
:1015B0002260422EB601C8010E94F603813019F460
:1015C000342D3460432EB501C4010E94F6038130EE
:1015D00019F4842D8860482EE42DF0E0EB5DFE4F79
:1015E0002491B601C40129830E94F6032981813028
:1015F00011F422952F702F704FEE50E06A817B819D
:10160000C8010E94B403242D25706A817B81C70123
:1016100029830E94F6032981813009F42260B501F3
:10162000C70129830E94F6032981813009F42860CB
:10163000E22FF0E0EB5DFE4F4490B601C7010E943F
:10164000F603813019F44294FFE04F22242D2F70CD
:1016500049EB50E06A817B81C80104960E94B40383
:1016600087010038110509F083CFEA81FB813896A4
:10167000FB83EA83E034F10509F06ECF2091BA05CF
:10168000B30153E0660F771F5A95E1F7C101E3E01C
:10169000880F991FEA95E1F7E5E3F1E00491E6E3AD
:1016A000F1E0E490222329F130E0220F331FA02F34
:1016B000B0E04E2D469546954695E42FF0E041E08A
:1016C00050E01E2D177011F440E050E04E0F5F1FE8
:1016D000A49FF001A59FF00DB49FF00D11242E9F43
:1016E000A0012F9F500D3E9F500D1124495C5E4F6D
:1016F00002C047E351E023E0C22E20E030E00E9428
:10170000CF01E5EBF1E080E098E000800EBC5110E5
:10171000012C019780FDFDCF0192B9F70DB420E0B7
:1017200030E0232B09F461CE0E9400005CCEECED8A
:10173000F5E01382128288EE93E0A0E0B0E08483AB
:101740009583A683B78387E991E0918380838FEFA8
:101750009FEF95878487E4ECF5E089EA91E0918337
:1017600080831582168280E187831482138211861A
:101770000895AA1BBB1B51E107C0AA1FBB1FA617D8
:10178000B70710F0A61BB70B881F991F5A95A9F72A
:1017900080959095BC01CD010895EE0FFF1F059037
:1017A000F491E02D099481E090E0F8940C94D80B2A
:0417B000F894FFCFDB
:1017B4000101010101010101010101010101010115
:1017C400010101000000000000000101000100010E
:1017D40001010100010101010100010000000001FB
:1017E40001000001010000000000010001000101EE
:1017F40001000100010100010000000000000001DF
:1018040001000100010100010001010000010101CA
:1018140001000000000000000000000100010001C0
:1018240001010101010101010101010101010101A4
:10183400FFFFFFFF00E100000000000000C1808105
:10184400000000000000003807B90759074E079F41
:0C185400075D077B0700000000F10300A7
:00000001FF
