:100000000C94F3000C941B010C941B010C941B0129
:100010000C941B010C941B010C941B010C941B01F0
:100020000C941B010C941B010C9449020C94BB0210
:100030000C941B010C941B010C941B010C941B01D0
:100040000C941B010C941B010C941B010C941B01C0
:100050000C941B010C941B010C941B010C942505A2
:100060000C941B010C941B010C941B010C941B01A0
:100070000C941B010C941B010C941B010C941B0190
:100080000C941B010C941B010C941B010C941B0180
:100090000C941B010C941B010C941B010C941B0170
:1000A0000C941B010C941B010C941B01D5F08D14B6
:1000B000A1C881CFD9F1AF20000408667E7E006020
:1000C0007F7F00666666666067676606FEFE000004
:1000D000FFFF0006E6E66600E7E766606060600036
:1000E000E0E06006060606000707060000000004C0
:1000F00008007E7E66007F7F60666666666667676C
:100100006000FEFE0600FFFF0066E6E60666E7E723
:10011000006060606060E0E0000606060606070713
:100120000000000000001122334455A6B700112240
:10013000884455A6C908080000000000000000001F
:100140000000000000000000000018183C247E247D
:100150007E183C00180000003C3C7E66FF4AFF5AB7
:10016000FF66FF3C7E003C00000018183C247E2403
:100170007E183C00180000080B0002020201000972
:100180000400000102020000052400100105240102
:10019000010104240206052406000107058103105D
:1001A000004009040100020A0000000705020240A5
:1001B0000000070583024000000403090412010047
:1001C00002EF020140412336800001010203014198
:1001D000726475696E6F204C4C430041424C313360
:1001E00030360000500B11241FBECFEFDAE0DEBF27
:1001F000CDBF11E0A0E0B1E0E2E4F7E102C005907C
:100200000D92AC3AB107D9F726E0ACEAB1E001C0F3
:100210001D92AE32B207E1F710E0C3EFD0E004C0A8
:100220002197FE010E94940BC23FD107C9F70E949B
:1002300000090C949F0B0C940000FC0184859585AB
:1002400097FD0BC09FB7F89482E08093E9008091FE
:10025000F2009FBF90E0019608959FB7F89482E066
:100260008093E9008091F2009FBF90E00895409153
:10027000BE015091BF012091BC013091BD014217D8
:100280005307B4F49091E8009570E1F39091E80081
:1002900092FD19C08093F1008091BE019091BF0141
:1002A00001968F739927892B19F48EEF8093E800BC
:1002B0008091BE019091BF0101969093BF01809300
:1002C000BE0181E0089580E00895DF92EF92FF92F1
:1002D0000F931F93CF93DF93D82E8A017B01E40EF7
:1002E000F51EEB01CE15DF0571F0D7FE03C0FE0150
:1002F000849101C088810E94370121968111F2CF3B
:100300008FEF9FEF01C0C801DF91CF911F910F9137
:10031000FF90EF90DF900895615030F02091F10050
:10032000FC0120830196F8CF289884E68093C401CD
:100330000895CF92DF92EF92FF920F931F93CF9386
:10034000DF936C017A018B01C0E0D0E0CE15DF05B0
:1003500089F0D8016D918D01D601ED91FC9101904C
:10036000F081E02DC6010995892B11F47E0102C0B0
:100370002196ECCFC701DF91CF911F910F91FF9094
:10038000EF90DF90CF9008953FB7F8948091AD0142
:100390009091AE01A091AF01B091B00126B5A89B9C
:1003A00005C02F3F19F00196A11DB11D3FBFBA2F07
:1003B000A92F982F8827820F911DA11DB11DBC0167
:1003C000CD0142E0660F771F881F991F4A95D1F72C
:1003D00008958FB18095807F669B88601C9B8460A8
:1003E00008950895089580E090E00895803891057B
:1003F00018F46034710518F08091B501089523E078
:10040000959587952A95E1F7FB0133E0F595E795FA
:100410003A95E1F744E0EE0FFF1F4A95E1F7E80F48
:10042000F91FE050FF4F808108950F931F93CF93E2
:10043000DF931F92CDB7DEB782E0898342E450E0BC
:1004400067E771E080E80E9465010E94AF08DC0167
:1004500012960D911C9113970115110569F0D801A1
:10046000ED91FC910280F381E02DBE016F5F7F4F23
:10047000C801099597FF07C089810F90DF91CF913F
:100480001F910F910895F80100851185E5CF0E9415
:100490009A0B1F920F920FB60F9211248F939F9376
:1004A0008091E1009091E100937F9093E10083FFC0
:1004B0000FC01092E90091E09093EB001092EC00D5
:1004C00092E39093ED001092C50198E09093F000B4
:1004D00082FF20C093E09093E9009091F20099236D
:1004E00019F09AE39093E8009091C201992339F0B2
:1004F0009091C20191509093C201992389F19091FA
:10050000C401992339F09091C40191509093C40192
:10051000992341F184FF10C08091E2008E7E8160BA
:100520008093E2008091E1008F7E8093E1008091D2
:10053000C3018E7E806111C080FF16C08091E200F1
:100540008E7E80618093E2008091E1008E7E8093B8
:10055000E1008091C3018E7E81608093C30104C05D
:100560005D9ACDCF289AD6CF9F918F910F900FBED5
:100570000F901F9018951F920F920FB60F92112493
:10058000CF92DF92EF92FF920F931F932F933F939F
:100590004F935F936F937F938F939F93AF93BF938B
:1005A000EF93FF93CF93DF93CDB7DEB76C97DEBFAA
:1005B000CDBF1092E9008091E80083FFEDC168E0B3
:1005C000CE0145960E948C0182EF8093E8008D89D0
:1005D00087FF05C09091E80090FFFCCF03C09EEF1D
:1005E0009093E800982F907609F0C6C09E892F89D5
:1005F000188D91110CC0803829F48091C10180932D
:10060000F10002C01092F1001092F10048C1422F97
:1006100050E0512B913051F4811141C141305105CD
:1006200009F03DC18091C1018D7F0BC0933061F411
:10063000811135C14130510509F031C18091C101AD
:1006400082608093C1012BC1953041F48091E80014
:1006500080FFFCCF20682093E30021C1963009F091
:100660005FC0EB8CFC8C1092E9001092BF011092DD
:10067000BE01123091F51092BD011092BC010E9492
:10068000150299E0BE016F5F7F4FDB01E92F1D92DC
:10069000EA95E9F799831A8391E09E8390EA988717
:1006A0009AEF99872091BE013091BF01275F3F4F9C
:1006B0003C832B838D831092E9001092BF0110922E
:1006C000BE01F092BD01E092BC0149E050E080E043
:1006D0000E9465010E941502E2C0F092BD01E09205
:1006E000BC010E94AF08DC011296ED90FC901397BC
:1006F000E114F10409F4C0C0D701ED91FC9104802C
:10070000F581E02DBE016B5E7F4FC7010995009713
:1007100019F00CF0C4C0C7C0F701E084F184E8CF41
:10072000973009F4C0C0983021F481E08093F10043
:10073000B6C0993009F0B3C0837009F0B4C0EDE8D9
:10074000F1E081E021E036E39081992361F080932C
:10075000E9002093EB0091919093EC003093ED0031
:100760008F5F873089F78EE78093EA001092EA0066
:100770008F898093C50193C08B8D9C8D1092E90069
:100780001092BF011092BE019093BD018093BC01F5
:10079000898D811156C08E899D89913A59F4813293
:1007A00009F081C047E050E064E871E080E00E9419
:1007B000650175C0913209F076C0833289F4888D65
:1007C00090E0982F88272F89822BA0E0B0E08093BB
:1007D000800190938101A0938201B09383015FC057
:1007E000803269F48091E80082FFFCCF67E084E802
:1007F00091E00E948C018BEF8093E80006C082326A
:1008000009F04DC08F8980938B018091C0018823AE
:1008100019F0EEEFFAE002C0E0E0F8E08091840128
:1008200090918501A0918601B0918701803B944011
:10083000A105B10509F07BC080918B0180FF93C0B9
:1008400076C00E94AF08DC0112960D911C9113979F
:100850000115110541F1D801ED91FC910190F08154
:10086000E02DBE016B5E7F4FC8010995811117C055
:10087000F80100851185ECCF113009F44EC013301A
:1008800091F48F89882309F445C0823081F440E8CF
:1008900067E08BED91E00E94C308882321F08EEF82
:1008A0008093E80079C081E28093EB0075C08130CD
:1008B00029F440E86BE08FEC91E0EDCF833099F7BD
:1008C0000E94AF08DC011296ED90FC9013978E0108
:1008D0000F5F1F4F6801E114F10479F0D701ED912A
:1008E000FC910680F781E02DB801C7010995080F3A
:1008F000111DF701E084F184EECFD8011C92F601BE
:1009000001900020E9F73197BF016C197D0940E0A3
:10091000C601C1CF69EB71E002C06DEB71E06115FA
:10092000710509F2FB01449150E080E840CF0FB619
:10093000F894A8958091600088618093600010927F
:1009400060000FBEA895EE3F2AE0F20739F08091D3
:10095000FE0A9091FF0A91838083A1CF1092FF0A33
:100960001092FE0A9CCFEE3F8AE0F80731F08081BA
:1009700091819093FF0A8093FE0A87E797E791831E
:1009800080839BE088E10FB6F894A895809360007F
:100990000FBE9093600083CF6C960FB6F894DEBFC5
:1009A0000FBECDBFDF91CF91FF91EF91BF91AF917E
:1009B0009F918F917F916F915F914F913F912F9177
:1009C0001F910F91FF90EF90DF90CF900F900FBE8F
:1009D0000F901F9018958F929F92AF92BF92CF92D7
:1009E000DF92EF92FF926B017C010E94C4014B01E8
:1009F0005C01C114D104E104F104F1F00E94C401CE
:100A0000DC01CB0188199909AA09BB09883E9340EA
:100A1000A105B10570F321E0C21AD108E108F1087F
:100A200088EE880E83E0981EA11CB11CC114D1046D
:100A3000E104F10419F7DDCFFF90EF90DF90CF9044
:100A4000BF90AF909F908F9008951F920F920FB616
:100A50000F9211242F933F938F939F93AF93BF9344
:100A60008091B1019091B201A091B301B091B40114
:100A70003091AC0123E0230F2D3720F40196A11D06
:100A8000B11D05C026E8230F0296A11DB11D2093BC
:100A9000AC018093B1019093B201A093B301B093E4
:100AA000B4018091AD019091AE01A091AF01B091E0
:100AB000B0010196A11DB11D8093AD019093AE01CF
:100AC000A093AF01B093B001BF91AF919F918F916F
:100AD0003F912F910F900FBE0F901F901895FC0122
:100AE0008091C501811103C08FEF9FEF08959FB7DB
:100AF000F89482E08093E9002091F20030E0121631
:100B0000130614F421E030E02115310559F028983E
:100B100084E68093C4018091F10080838091F2008B
:100B2000882319F09FBFC90108958BE68093E800E0
:100B3000F9CF2FB7F89483E08093E9009091E80013
:100B4000892F807295FF04C09091F20080E4891B88
:100B50002FBF0895CF93DF931F92CDB7DEB7698380
:100B6000DC01ED91FC910280F381E02D41E050E049
:100B7000BE016F5F7F4F09950F90DF91CF91089570
:100B800083E08093E9008091F200882319F08AE3E2
:100B90008093E80008950E94990590E00895CF930E
:100BA000DF931F92CDB7DEB7FC018485958597FD55
:100BB00005C02FEF3FEF358724870BC0CE0101968C
:100BC0000E946F05019719F4898190E002C08FEFB0
:100BD0009FEF0F90DF91CF9108950F931F93CF93C5
:100BE000DF931F92CDB7DEB78C01FC01848595851C
:100BF00097FF0EC0CE0101960E946F05019719F470
:100C0000298130E002C02FEF3FEFF80135872487BC
:100C1000F801848595850F90DF91CF911F910F91F9
:100C200008958F929F92AF92BF92CF92DF92EF92F0
:100C3000FF920F931F93CF93DF935C016B017A01B7
:100C400080918B01882309F45BC08091C5018823C2
:100C500009F456C08091C30180FF05C08091E00077
:100C600082608093E000E70110E00AEF83E0882EC5
:100C70009AE3992E2097D9F10E94990581110AC013
:100C8000015009F43DC061E070E080E090E00E9416
:100C9000EB04F0CF282F30E0C217D3070CF48C2FD1
:100CA0004FB7F8948092E9009091E80095FF1DC03D
:100CB000282F30E0C21BD30BF601982F915020F063
:100CC00081918093F100FACFC20ED31E112319F047
:100CD0009092E80009C08091E80085FD06C09092DE
:100CE000E80011E0209709F010E04FBFC3CF1111C9
:100CF000C3CF5D9884E68093C2011E141F0444F0A4
:100D000081E090E0F5019383828380E090E001C070
:100D1000C701DF91CF911F910F91FF90EF90DF906E
:100D2000CF90BF90AF909F908F90089565E070E056
:100D300080E090E00C94EB046F927F928F929F92F0
:100D4000AF92BF92CF92DF92EF92FF920F931F93D9
:100D5000CF93DF9300D000D0CDB7DEB76C01411543
:100D6000510509F4DEC1A0E0B0E0FA0190E0159170
:100D70008591211511F49115B1F047E0480F479581
:100D800046954695033009F4440F419FA001249FE6
:100D9000E00DF11D259FF00D109629F0949FA00DF8
:100DA000B11D959FB00D11240F3F21F4109602E064
:100DB00009F001E0E12EF12CA6014E0D5F1D141685
:100DC00015060CF0AEC190E8C916D1040CF0A9C10B
:100DD0009B01280F311D121613060CF0A2C16034BE
:100DE00071050CF09EC1309709F49BC1962F977046
:100DF000992E5B0177FF03C097E0A90EB11C93E029
:100E0000B594A7949A95E1F72A2D77FF04C099200D
:100E100011F02FEF2A0DD7FE05C0AA24BB24AC1871
:100E2000BD0802C0A12CB12C403851051CF030E89F
:100E30003C1901C0312F3A19422F022E000C550BDC
:100E40002F3F1CF4742E709401C0712C91E0682F18
:100E5000677009F490E0869586958695980F490FFE
:100E6000511D4930510514F098E0921B9719270D38
:100E7000B60140E82403600D711D11246A0D7B1D2D
:100E8000719EA00CB11C1124AF014A0D5B1DE1E065
:100E9000F0E06F01092C02C0CC0CDD1C0A94E2F7D3
:100EA000033009F4FAC0A0F4013009F4ADC00230F7
:100EB00009F037C18FEF8C9D80018D9D100D11249D
:100EC000009510951C830B838C80792E720E27C0A1
:100ED0000A3F31F00B3F09F024C1B92EB20E80C099
:100EE000B92EB20E4BC0FA01E80FF91FE491EC9D48
:100EF0005001ED9DB00C1124BA82A98227FD04C0D7
:100F0000EC91E023AE2AAC92911012C0019611969A
:100F1000831748F32F5F4E0D5F1D60587F4F2715D5
:100F200009F4FFC0DB01AA53BE4F80E090E0F0CF90
:100F3000273064F7FD01E058FF4FB080B820AA8049
:100F4000BA28B082E3CFFA01E80FF91FE491EC9DD3
:100F50008001ED9D100D11241A83098327FD03C024
:100F6000EC910E2B0C93911012C0019611968317E1
:100F700050F32F5F4E0D5F1D60587F4F2B1509F406
:100F8000D0C0DB01AA53BE4F80E090E0F0CF273005
:100F900064F78D0100581F4FF801A080EA81AE2A46
:100FA000F801A082E2CFFA01E00FF11FE491EC9D7D
:100FB000C001ED9D900D11249A83898327FD04C003
:100FC00080959C9189238C93911013C00F5F1F4FC4
:100FD0001196031740F32F5F4E0D5F1D60587F4F32
:100FE0002B1509F49EC0DB01AA53BE4F00E010E0B0
:100FF000F0CF27305CF7FD01E058FF4F8A818095E4
:10100000908189238083E2CFAA0DBB1D892E820E99
:10101000281509F486C0CB018A539E4F5C0100E07D
:1010200010E0031790F5FD01E00FF11FE491EC9D36
:10103000C001ED9D900D1124809590959C838B832C
:10104000FA01E00FF11FE491EC9D3001ED9D700C71
:1010500011247A82698227FD05C0F50190818923D8
:10106000682A6082992059F027304CF4F501E05845
:10107000FF4F90818C8189239A81892B80830F5F18
:101080001F4FFFEFAF1ABF0ACCCF2F5F4E0D5F1D72
:10109000AE0DBF1D60587F4FBBCF632E712CFA0180
:1010A000EA0DFB1DDB01AA53BE4F60E870E08B0127
:1010B00006191709E618F708B701660F771F592FA9
:1010C000E32ECF93DF93ED01EF96EF962296659096
:1010D000A590992059F06C9C3001AC9C50012730B0
:1010E0002CF4F880B094FB20F728F99222233AF0F0
:1010F000FC90A094FA20F628FD920C94800811969A
:101100003A9529F75A9551F03E2D23951124E60F73
:10111000F11DA00FB11DC00FD11DD9CFDF91CF910F
:1011200011240F900F900F900F90DF91CF911F918E
:101130000F91FF90EF90DF90CF90BF90AF909F9076
:101140008F907F906F9008952091CC05282329F4EB
:101150009091CB05982381E009F480E00895809177
:10116000D50581110DC082E08093D10584E0809384
:10117000D2051092D4051092D30581E08093D50555
:1011800081ED95E00895CF92DF92EF92FF920F9359
:101190001F93CF93DF931F92CDB7DEB7182F062F83
:1011A000E42E862F880F8E5F99830E94370183E09B
:1011B0000E943701F12EC12E9981D92E8C2D8F19C5
:1011C000801798F4F601E7FE02C0849101C0808187
:1011D0000E943701182F80E00E9437018123FFEF22
:1011E000CF1ADF0A8111EACF01C081E00F90DF91B1
:1011F000CF911F910F91FF90EF90DF90CF900895C6
:10120000CF93DF9300D000D0CDB7DEB7789484B50C
:10121000826084BD84B5816084BD85B5826085BDF2
:1012200085B5816085BD80916E00816080936E0080
:101230001092810080918100826080938100809172
:101240008100816080938100809180008160809323
:101250008000809191008260809391008091910044
:1012600081608093910080919000816080939000D4
:101270008091C10084608093C1008091C100826030
:101280008093C1008091C10081608093C1008091F2
:10129000C30081608093C3008091C000826080930E
:1012A000C0008091C20081608093C20080917A006A
:1012B000846080937A0080917A00826080937A00C3
:1012C00080917A00816080937A0080917A008068B2
:1012D00080937A001092C5011092C1011092C3014F
:1012E0008091D70081608093D70080EA8093D800F6
:1012F00089B5806189BD89B5826089BD09B400FE68
:10130000FDCF61E070E080E090E00E94EB0480910E
:10131000D8008F7C80618093D8008091E000807F2E
:101320008093E0008091E1008E7E8093E1008DE06B
:101330008093E200559A209AEEEFFFE78591949111
:101340008B3F9C4D19F481E08093C00181EC809328
:101350007C0081EF85B987EE84B984E38BB984EF93
:101360008AB9769A6E9880EF81BB10BA80E58CBD01
:1013700081E08DBD0E9496065F9902C05F9AFACF08
:101380005C98ECEAF0E09DE085918EBD00000DB424
:1013900007FEFDCF8EB59A95B9F75C9A81E88093E8
:1013A000640081E0809365003324339422242394E5
:1013B0008FB7F8944091B1015091B2016091B3019F
:1013C0007091B4018FBF8091CE05342F381B832FCD
:1013D0009091CF05992329F03093D0051092CF0535
:1013E00049C19091CD05391740F48F5F891708F0F6
:1013F00041C133BE889513BE3DC12092CF054093B5
:10140000CE058091C9059091CA0501969093CA05B1
:101410008093C90567E070E00E94800B892B31F44E
:101420008091BB018F5F83708093BB018091CB055E
:101430008093CC050E94E9018093CB051092BA01FC
:1014400080E80E94A408882359F08091B801909107
:10145000B90101979093B9018093B8012092BA0124
:1014600080E10E94A408882359F08091B8019091EE
:10147000B90101969093B9018093B8012092BA0105
:1014800080E20E94A408882359F08091B6019091CF
:10149000B70101979093B7018093B6012092BA01EA
:1014A00080E40E94A408882359F08091B6019091AD
:1014B000B70101969093B7018093B6012092BA01CB
:1014C0004090B8015090B90187E0482255245092CD
:1014D000B9014092B801C090B601D090B7019FE029
:1014E000C922DD24D092B701C092B60188E00E94E3
:1014F000A4088111C7C00E94E90183FF04C0809144
:10150000BA018111BFC084E00E94A408882329F099
:101510008091B50183258093B5011C821B82E12C4B
:10152000F12C6B807C8098E0691A71088B809C801C
:10153000E8E08E0E911C6B817C81C7010E94F60150
:10154000F70138965F01813009F064C0B301C7012B
:101550000E94F60111E0813009F010E09701285057
:1015600031093A8329836B817C81C9010E94F6018C
:10157000813009F41E5FB401C7010E94F601813079
:1015800009F41C5FB30189819A810E94F6018130C0
:1015900009F4185FE12FF0E0EB5DFE4F0491B40118
:1015A00089819A810E94F601813011F402950F70B1
:1015B000202F2F700AEF4FEE50E06B817C81C70126
:1015C0000E949C0615706B817C81C5010E94F6010A
:1015D000813009F41E5FB301C5010E94F60181301C
:1015E00009F4185FE12FF0E0EB5DFE4F1491B401B8
:1015F000C5010E94F601813011F412951F70212F50
:101600002F700AEF49EB50E06B817C81C701049693
:101610000E949C06750130E8A316B10409F08BCF37
:101620008B819C8108969C838B838034910509F083
:1016300076CFB20193E0660F771F9A95E1F703E04A
:101640002091BB0145E351E0C60133E0880F991FAB
:101650003A95E1F70E949C06E6ECF1E080E098E024
:1016600000800EBC3110012C019780FDFDCF01924E
:10167000B9F70DB420E030E0232B09F499CE0E9495
:10168000000096CEF20184E0EE0FFF1F8A95E1F78D
:10169000EC0DFD1DE050FF4F80818325808333CF0B
:1016A000EDEDF5E01382128288EE93E0A0E0B0E069
:1016B00084839583A683B78387E991E091838083B0
:1016C0008FEF9FEF9587848787E090E00E94780BEB
:1016D00080932D06E6ECF5E089EA91E09183808322
:1016E0001582168280E18783148213821186089501
:1016F000F999FECF92BD81BDF89A992780B50895DA
:10170000AA1BBB1B51E107C0AA1FBB1FA617B70727
:1017100010F0A61BB70B881F991F5A95A9F7809543
:101720009095BC01CD010895EE0FFF1F0590F49137
:10173000E02D099481E090E0F8940C949F0BF894CC
:02174000FFCFD9
:101742000101010101010101010101010101010187
:101752000101010000000000000001010001000180
:10176200010101000101010101000100000000016D
:101772000100000101000000000001000100010160
:101782000100010001010001000000000000000151
:10179200010001000101000100010100000101013D
:1017A2000100000000000000000000010001000133
:1017B2000101010101010101010101010101010117
:1017C200FFFFFFFF00E100000000000000C1808178
:1017D20000000000000000AA051106CB05C0051D8F
:0C17E20001CF05ED0500000000F1010042
:00000001FF
